:020000040000FA
:020000001C28BA
:080008008C0003088D008B1C25
:100010000B2819148B100B1D1728960A8B12DA3037
:1000200081000B118B161608573E031999140D0801
:1000300083008C0E0C0E0900AF20AF20AF20AF2044
:10004000AF20AF20AF20AF20AF20AF20AF20AF2038
:10005000AF20AF20AF20AF20AF20AF20AF20AF2028
:1000600085018316FC3085008312860183160130DA
:100070008600811790308B00011364008316811273
:10008000811101158114011083128B12FA30920034
:100090009320FA3094001918CA204B2803308A00A4
:1000A000120800238E00051E56285A289203963007
:1000B00012025B289203031D0800FA309200080028
:1000C0008E1F632865280514662805100E1F6928F1
:1000D0006B2886176C2886138E1E6F2871280617CA
:1000E000722806130E1E7528772886167828861221
:1000F0008E1D7B287D2806167E2806120E1D81285F
:1001000083288615842886118E1C87288928061541
:100110008A2806110E1C8D288F288514902885109A
:1001200008008610080086140800FA308F008F033C
:100130000000000000000000000000000000031D9F
:1001400097280800B7308F008F03000000000000E0
:100150000000000000000000031DA4280800F33088
:100160009100FF3090009003031DB3289103031DFD
:10017000B128080003309A0096309100FA309000C0
:100180009003031DC0289103031DBE289A03031D7D
:10019000BC2808001910160895009601150898004B
:1001A00097000310970C97078B12DA3081000B1120
:1001B0008B16991CDD2899100800BA206430930032
:1001C0004E20602095209120A2209320952093031B
:0601D000031DE0280800F9
:100600008207000000340034003400340034003429
:10061000003400340034003400340034003400343A
:10062000003400340034003400340034003400342A
:10063000003400340034003400340034003400341A
:10064000003400340034003400340034003400340A
:1006500000340034003400340034003400340034FA
:1006600000340034003400340034003400340034EA
:1006700000340034003400340034003400340034DA
:1006800000340034003400340034003400340034CA
:1006900000340034003400340034003400340034BA
:1006A00000340034003400340034003400340034AA
:1006B000003400340034003400340034003400349A
:1006C000003400340034003400340034003400348A
:1006D000003400340034003400340034003400347A
:1006E000003400340034003400340034003400346A
:1006F000003400340034003400340034003400345A
:100700000034003400340034003400340034003449
:100710000034003400340034003400340034003439
:100720000034003400340034003400340034003429
:100730000034003400340034003400340034003419
:100740000034003400340034003400340034003409
:1007500000340034003400340034003400340034F9
:1007600000340034003400340034003400340034E9
:1007700000340034003400340034003400340034D9
:1007800000340034003400340034003400340034C9
:1007900000340034003400340034003400340034B9
:1007A00000340034003400340034003400340034A9
:1007B0000034003400347D340034003400340E340E
:1007C0001134113411340E340034003401347F34C8
:1007D000413400340034003401347F344134003477
:1007E00000340C341534153415340E3400347F3491
:0807F0000834083408347F349A
:02400E00F23F7F
:00000001FF
